:100000000C94CD000C94EE000C94EE000C94EE00D9
:100010000C94EE000C94EE000C94EE000C94EE00A8
:100020000C94EE000C94EE000C9491070C94EE00EE
:100030000C94EE000C94C5070C94EE000C94FA0F8F
:100040000C94EE000C94EE000C94EE000C94EE0078
:100050000C94EE000C94EE000C94EE000C94EE0068
:100060000C94EE000C94320F0C94EE000C94EE0005
:100070000C94EE000C9439110C94EE000C94EE00EC
:100080000C947F230C9495230C94EE000C94E8229E
:100090000C94EE000C94EE000C94EE000C94EE0028
:1000A0000C94EE000C94EE000C94BC220C94D22222
:1000B0000C94EE000C941B220C94EE000C94EE00B9
:1000C0000C94EE000C94EE000C94EE000C94EE00F8
:1000D0000C94EE000C94EE000C94EE000C94EE00E8
:1000E0000C94EE00B70AA20A790A5E0A390A030ADA
:1000F000D509190AA2098609260926092609260909
:10010000260926097A096F092609260926092609DA
:100110002609260926092609260926092609260967
:10012000A209790A6309560926092609260926091A
:100130002609260926092609260926092609260947
:10014000390AD50926092609B70A030A4609084AC1
:10015000D73B3BCE016E84BCBFFDC12F3D6C7431DB
:100160009ABD56833DDA3D00C77F11BED9E4BB4C32
:100170003E916BAAAABE000000803F05A84CCDB2FC
:10018000D44EB93836A9020C50B9918688083CA6DD
:10019000AAAA2ABE000000803F0011241FBECFEF94
:1001A000D1E2DEBFCDBF00E00CBF12E0A0E0B2E0C4
:1001B000EAE2F1EB00E00BBF02C007900D92AA3318
:1001C000B107D9F71BE0AAE3B2E001C01D92AC3A37
:1001D000B107E1F70E94F0000C9493580C940000D2
:1001E0000E944E100E94013A0E94DA3580910B0164
:1001F000816080930B0180910B01826080930B01E1
:1002000080910B01846080930B01A39A80910B0174
:10021000806180930B0180910B01806280930B01C0
:1002200080910B01806480930B0180910B018068A9
:1002300080930B010E944F4FFDCF2091340381E04A
:1002400090E00DB407FC09C0019637E280319307B6
:10025000C0F321E00DB407FEF7CF209334030895D7
:1002600084B1807F84B984B1876084B980E58CBD16
:100270008DB581608DBD08951CBC1DBC0895482FAF
:100280006623E9F09C01F90180818EBD2091340341
:1002900081E090E00DB407FC09C0019637E280319F
:1002A0009307C0F321E00DB407FEF7CF209334038A
:1002B000222329F431968E2F841B861728F3089564
:1002C000CF93DF93EC01442321F1A0E0B0E0FE01E5
:1002D000EA0FFB1F80818EBD8091340321E030E066
:1002E0000DB407FC0AC02F5F3F4F97E2203139075A
:1002F000B8F381E00DB407FEF6CF80933403882372
:1003000041F48EB5FB01EA0FFB1F80831196A41701
:10031000F0F2DF91CF9108958EBD2091340381E0FA
:1003200090E00DB407FC09C0019637E280319307D5
:10033000C0F321E00DB407FEF7CF209334038EB550
:10034000089581E08093350383E080933603089518
:1003500010923503089583E080933603089528981A
:1003600081EE0E948C01289A0895289880E60E94C8
:100370008C018FEF0E948C01289A08951F93162FED
:1003800028988F7180620E948C01812F0E948C01BD
:10039000289A1F910895289882EE0E948C01289A2D
:1003A000089580916305882311F080E008952898CE
:1003B0008FEF0E948C01289A80740895FF920F930A
:1003C0001F938B01F42E28988F7180620E948C01FC
:1003D000C8016F2D0E943F01289A1F910F91FF9035
:1003E0000895FF920F931F938B01F42E28988F711D
:1003F0000E948C01C801B8014F2D0E946001289A0B
:100400001F910F91FF900895FF920F931F93CF9329
:10041000DF93082FF92E162F289881EE0E948C0169
:10042000289A289888EA0E948C01112359F0802F7D
:100430009F2D9C01E90189910E948C019E01201B46
:100440002117C8F3289ADF91CF911F910F91FF9048
:100450000895DF93CF930F92CDB7DEB71982289816
:1004600081E10E948C01BE016F5F7F4FCB0141E0B3
:100470000E946001289A89810F90CF91DF910895A1
:10048000DF93CF930F92CDB7DEB71982289887E11B
:100490000E948C01BE016F5F7F4FCB0141E00E9443
:1004A0006001289A898181700F90CF91DF91089522
:1004B0000F931F938C01289880E30E948C01C80140
:1004C00065E00E943F01289A1F910F9108950F93B4
:1004D0001F938C012C9828988AE20E948C01C801F5
:1004E00065E00E943F01289A2C9A1F910F91089570
:1004F0001F93CF93DF93EC01162F80916305882320
:10050000E1F72C9881E080936305289880E20E94AF
:100510008C018AE40E948C01289A289881EE0E941E
:100520008C01289A289880EA0E948C01CE01612FC4
:100530000E943F01289A2C9ADF91CF911F91089534
:100540000F931F93DF93CF9300D0CDB7DEB72898DA
:1005500080E20E948C018DE00E948C01289A2898EC
:1005600083E20E948C0181E00E948C01289A809194
:1005700031039091320399838A831B82289880E308
:100580000E948C018E010F5F1F4FC80163E00E9423
:100590003F01289A28988AE20E948C01C80163E0F2
:1005A0000E943F01289A289881E20E948C0181E0F4
:1005B0000E948C01289A289882E20E948C0181E096
:1005C0000E948C01289A289884E20E948C0182E182
:1005D0000E948C01289A289885E20E948C0188E26A
:1005E0000E948C01289A289881E30E948C018DE05A
:1005F0000E948C01289A289880E50E948C0183E74C
:100600000E948C01289A28988CE30E948C0181E03A
:100610000E948C01289A28988DE30E948C0186E024
:100620000E948C01289A289880E20E948C018FE019
:100630000E948C01289A0F900F900F90CF91DF911C
:100640001F910F9108952C9A289A0E94A002089554
:100650000F931F938C01289881E60E948C01C8019A
:10066000B8014DE00E946001289A289887E20E9414
:100670008C0180E40E948C01289A1F910F910895AB
:100680000F931F93DF93CF930F92CDB7DEB7809177
:100690006305882331F00F90CF91DF911F910F9167
:1006A000089528988FEF0E948C01289A86FFF3CF37
:1006B00080913303826080933303289887E20E94FD
:1006C0008C0180E70E948C01289A1982289887E182
:1006D0000E948C01BE016F5F7F4FCB0141E00E9401
:1006E0006001289A898180FDD6CF289881E60E94F2
:1006F0008C0188EB99E0BC014DE00E946001289AD2
:10070000289887E20E948C0180E40E948C01289A3C
:10071000289882EE0E948C01289A809135038130BE
:1007200009F491C28091B8098823B9F48091B9097C
:10073000882399F48091BA09882379F48091BB09C0
:10074000883059F48091BC09882339F48091BD091F
:10075000882319F48CE30E94AC1080919C058823B7
:1007600041F58091BC09282F30E02F77307030930D
:10077000300320932F036091BD09462F50E04F773F
:10078000507050932E0340932D0387FD27C2882776
:100790009927821B930B909316038093150367FD93
:1007A00083C388279927841B950B90931803809304
:1007B00017032091B80930E03093A1092093A009D4
:1007C000E091B909F0E0F093A309E093A209009148
:1007D000BA0910E01093A5090093A409922F882765
:1007E000821B930B64E670E00E946957262F2095C8
:1007F000209308029E2F88278E1B9F0B64E670E0D3
:100800000E946957609560930A02902F8827801B89
:10081000910B64E670E00E9469576095609309024D
:10082000822F0E941E36809109020E9434368091E8
:100830000A020E944A362091BB09922F20FF11C163
:10084000449891FF3CC1459892FF36C181E0809366
:100850000E0294FDE6C196FF2CC181E080939404C2
:1008600027FDE7C1109295048091BE0980FF1BC14E
:1008700080910B018E7F80930B018091BE0981FFD7
:100880000CC180910B018D7F80930B018091BE097B
:1008900082FFFDC080910B018B7F80930B018091C3
:1008A000BE0983FFF2C0A3988091BE0984FFE7C010
:1008B00080910B018F7E80930B018091BE0985FF93
:1008C000D8C080910B018F7D80930B018091BE0970
:1008D00086FFC9C080910B018F7B80930B018091B3
:1008E000BE0987FDAAC180910B01806880930B012E
:1008F00080917004883009F476C18091070280935A
:10090000F008853009F474C2863008F0DAC083300C
:1009100009F4F4C1843009F054C080917D029091B3
:100920007E028093F108892F990F990B8093F2082A
:1009300080918502909186028093F308892F990F08
:10094000990B8093F408809187029091880280939C
:10095000F508892F990F990B8093F60880918902E9
:1009600090918A028093F708892F990F990B8093B1
:10097000F80880918B0290918C028093F908892F5E
:10098000990F990B8093FA0880914C0490914D0433
:100990008093FB08892F990F990B8093FC08809115
:1009A0004E0490914F048093FD08892F990F990B65
:1009B0008093FE08809143048093FF0885E0809334
:1009C0000702289881EE0E948C01289A289888EACC
:1009D0000E948C018091F0080E948C018091F108A6
:1009E0000E948C018091F2080E948C018091F30892
:1009F0000E948C018091F4080E948C018091F5087E
:100A00000E948C018091F6080E948C018091F70869
:100A10000E948C018091F8080E948C018091F90855
:100A20000E948C018091FA080E948C018091FB0841
:100A30000E948C018091FC080E948C018091FD082D
:100A40000E948C018091FE080E948C018091FF0819
:100A50000E948C01289A0F90CF91DF911F910F91E6
:100A60000895449AEECE80910B01806480930B012F
:100A700036CF80910B01806280930B0127CF80914C
:100A80000B01806180930B0118CFA39A0DCF809149
:100A90000B01846080930B0102CF80910B01826077
:100AA00080930B01F3CE80910B01816080930B0149
:100AB000E4CE10929404D4CE10920E02CACE459A7F
:100AC000C3CE863009F4C5C0873009F07ACF609173
:100AD000F1027091F2028091F3029091F4020E946F
:100AE00073556093F108272F382F492F552747FD5D
:100AF0005A952093F2089C01552737FD5095452FB4
:100B00002093F308692F992767FD9095792F892FF6
:100B10006093F4086091ED027091EE028091EF0213
:100B20009091F0020E9473556093F508272F382F9B
:100B3000492F552747FD5A952093F6089C015527C4
:100B400037FD5095452F2093F708692F992767FDAA
:100B50009095792F892F6093F80860919704709190
:100B600098048091990490919A0460939B047093E7
:100B70009C0480939D0490939E0420E030E44FE019
:100B800054E40E94BF560E9473556093F908672F82
:100B9000770F770B6093FA0860919F047091A0041F
:100BA0008091A1049091A2040E9478556093FB0863
:100BB0007093FC086091A3047091A4048091A50433
:100BC0009091A6040E9478556093FD087093FE08EA
:100BD0001092FF0883E080930702F3CE3093160350
:100BE00020931503DCCD80919C05882309F085CEE8
:100BF0008091BF0980FF81CE0E94013A8FEF93E080
:100C0000909386028093850290938C0280938B024E
:100C100086E080938F0B81E08093E90880939C05A8
:100C20006CCE0E94013A0E9411102091BB09922FB4
:100C300012CE81E08093950417CE80910B018F77BF
:100C400080930B0155CE80EF98E060E10E94040292
:100C500022CD80915502909156028093F1088091A7
:100C60005502909156029093F208809165029091FE
:100C700066028093F30880916502909166029093DA
:100C8000F4088091690290916A028093F50880913E
:100C9000690290916A029093F60880916D0290919A
:100CA0006E028093F70880916D0290916E0290938E
:100CB000F80880917102909172028093F9088091F6
:100CC0007102909172029093FA0880915004909171
:100CD00051048093FB08892F990F990B8093FC088E
:100CE0008091D9029091DA028093FD089093FE08DA
:100CF0001092FF0887E08093070263CE809175020F
:100D0000909176028093F108892F990F990B809327
:100D1000F20880917702909178028093F308892FEE
:100D2000990F990B8093F4088091790290917A023F
:100D30008093F508892F990F990B8093F60880917D
:100D40007B0290917C028093F708892F990F990B71
:100D50008093F80880917F02909180028093F90837
:100D6000892F990F990B8093FA08809181029091B5
:100D700082028093FB08892F990F990B8093FC08BE
:100D800080918302909184028093FD08892F990FAE
:100D9000990B8093FE0820910301809103014091FB
:100DA000030190E080729070959587959595879551
:100DB000959587959595879595958795880F991F12
:100DC000441F4427441F440F440F482B30E0207138
:100DD0003070359527953595279535952795359517
:100DE0002795422B4093FF0884E080930702E9CDCA
:100DF00080914502909146028093F10880914502CE
:100E0000909146029093F2088091490290914A0293
:100E10008093F3088091490290914A029093F408DC
:100E200080914D0290914E028093F50880914D0281
:100E300090914E029093F608809151029091520247
:100E40008093F70880915102909152029093F80894
:100E50008091590290915A028093F9088091590229
:100E600090915A029093FA0880915D0290915E02EF
:100E70008093FB0880915D0290915E029093FC0844
:100E800080916102909162028093FD0880916102DD
:100E9000909162029093FE08809170048093FF0805
:100EA00086E0809307028DCD50931803409317037B
:100EB00080CC909136039093F0088091B8099817F0
:100EC00041F00E9440039091B80980913603981731
:100ED000C1F71092F0089F3F21F09F5F9093360377
:100EE000089583E0809336030895CF93DF93E8E677
:100EF000F0E01082ACE6B0E01C9220EB30E0E901BB
:100F000018821092B10010927000808182608083FC
:100F10008C9180688C93888182608883DF91CF91E7
:100F200008951F920F920FB60F9211248F93809104
:100F30000E02882321F18091030186FD20C080915B
:100F400068008D7F8093680080916C008F7780931C
:100F50006C0081E080930F028DE08093B30080915C
:100F6000B10086608093B1008091700082608093B0
:100F7000700010923C0210923D0210923E028F913E
:100F80000F900FBE0F901F9018951F920F920FB6E3
:100F90000F9211242F933F934F935F938F939F93BF
:100FA0008091B100887F8093B10080910F028823E7
:100FB00059F18091030186FD69C010920F0283E30D
:100FC0008093B3008091B10086608093B1008091DE
:100FD0007000826080937000809101029091020203
:100FE0002FEF8F3F920729F0019690930202809392
:100FF00001029F918F915F914F913F912F910F909F
:101000000FBE0F901F90189540910102509102025F
:101010008FEF4F3F580709F44AC04130510509F49A
:1010200080C0CA010297059708F450C0CA0107970B
:10103000069708F0ABC086E38093B3008091B100BF
:1010400086608093B1008091700082608093700010
:101050002091030130E0207430700024220F331FF0
:10106000001C220F331F001C232F302D8CE090E03A
:10107000841B950B02C0220F331F8A95E2F78091E3
:101080003C02820F80933C02CA01AECF809168007F
:1010900082608093680080916C00806880936C000F
:1010A0008FEF9FEF9093020280930102A2CF809175
:1010B000030186FF54C080916800826080936800BD
:1010C00080916C00806880936C0093CF86E380935E
:1010D000B3008091B10086608093B1008091700070
:1010E0008260809370002091030130E020743070A2
:1010F0000024220F331F001C220F331F001C232F3C
:10110000302D86E090E0841B950B02C0220F331F28
:101110008A95E2F780913D02820F80933D02CA01D9
:1011200063CF8091030190E080749070082E892F26
:10113000000C881F990B000C881F991F80933E029A
:1011400086E38093B3008091B10086608093B10004
:1011500080917000826080937000CA0145CF8CE15D
:101160008093B3008091B10086608093B10080913C
:10117000700082608093700010923C0210923D02D9
:1011800010923E0240E050E0CA012ECF4D30510592
:1011900009F07ACF1092700080916800826080938D
:1011A000680080916C00806880936C008FEF9FEFE7
:1011B000909302028093010280913E02809300028C
:1011C00080913D0280933A0280913C0280933B02E1
:1011D00081E0809344040DCF8091000208958091B6
:1011E0003A02089580913B02089580910E0288236F
:1011F00021F080914404882309F408951092440456
:101200000E94041020914704309148044091490401
:1012100050914A04621B730B840B950B6358774003
:101220008040904050F30E940410609347047093F4
:1012300048048093490490934A0480913B02809330
:101240004304E82FF0E0E533F105C0F040911503C9
:10125000509116032091170330911803CA01642F8F
:10126000892F57FDB7C160932F038093300337FD5B
:10127000A8C130932E0320932D030895EE58FF4FFD
:10128000EE0FFF1F0590F491E02D19948091460414
:1012900090E001968370907080934604813009F449
:1012A000CAC1813008F0BBC1109294041092950419
:1012B00040911503509116032091170330911803A4
:1012C000CDCF1092940481E0809395044091150352
:1012D000509116032091170330911803BFCF10923D
:1012E00094044091150350911603209117033091F7
:1012F0001803B4CF81E0809394044091150350917A
:1013000016032091170330911803A8CF20911703DB
:101310003091180322503040309318032093170364
:101320008FEF213838070CF05AC181E89FEF909376
:10133000180380931703409115035091160321E879
:101340003FEF8CCF4091150350911603809113030A
:1013500090911403481759070CF05BC19A01425051
:101360005040509316034093150322503040309361
:101370001803209317038FEF4138580744F481E88E
:101380009FEF909316038093150341E85FEF8FEF73
:10139000213838070CF062CF81E89FEF9093180353
:1013A0008093170321E83FEF59CF409115035091E7
:1013B000160342505040509316034093150360911A
:1013C0001703709118036E5F7F4F9B017093180392
:1013D000609317038FEF4138580744F481E89FEF7B
:1013E000909316038093150341E85FEF6038710511
:1013F0000CF434CF8FE790E0909318038093170399
:101400002FE730E02BCF10921603109215031092A5
:1014100018031092170380917004883009F418C1E2
:1014200060911503809116032091170330911803E2
:101430001ACF4091150350911603425050405093DB
:101440001603409315032FEF413852070CF002CFDB
:1014500081E89FEF90931603809315038FE790E048
:1014600020911703309118039093300380932F033A
:10147000FECE40911503509116034E5F5F4F50937F
:10148000160340931503609117037091180362507F
:1014900070409B0170931803609317034038510507
:1014A00044F08FE790E090931603809315034FE785
:1014B00050E061587F4F0CF0D1CE6ECF20911703D2
:1014C000309118032E5F3F4F30931803209317037A
:1014D000203831050CF483C08FE790E09093180317
:1014E0008093170340911503509116032FE730E0C6
:1014F000B5CE4091150350911603209117033091FA
:101500001803241735070CF082C09A014E5F5F4F15
:1015100050931603409315032E5F3F4F30931803EB
:10152000209317034038510544F08FE790E09093E3
:101530001603809315034FE750E0203831050CF473
:101540008DCE58CF40911503509116034E5F5F4FDB
:101550005093160340931503403851050CF47ACE8E
:101560008FE790E0909316038093150359CF8091F5
:10157000450490E0019665E070E00E947D578093FD
:101580004504882389F5449A459A10920A028FEF00
:101590008093090280930802809108020E941E36FF
:1015A000809109020E94343680910A020E944A36D4
:1015B00040911503509116032091170330911803A1
:1015C0004DCE88279927821B930B90932E038093EF
:1015D0002D03089588279927841B950B45CF4091AB
:1015E0001503509116033ACE813009F44EC0823073
:1015F00009F453C0833009F45AC0843069F68FEF80
:1016000080930A028093090280930802C5CFA90142
:101610007DCF2091170330911803A901A0CE82300D
:1016200009F44FCE833009F051CE81E080939404C9
:10163000809395040BCE809394041092950440916E
:10164000150350911603209117033091180306CE0D
:101650000E94013A8FEF93E0909386028093850277
:1016600090938C0280938B0286E080938F0B81E0B5
:101670008093E90880939C054091150350911603CF
:101680002091170330911803E9CD8FEF80930A0260
:1016900010920902809308027FCF449845988FEFFB
:1016A00080930A02809309021092080275CF10926B
:1016B0000A0210920902109208026ECF0895EF926A
:1016C000FF920F931F93CF93DF93EC018881998151
:1016D000892B09F4B2C0E090550BF090560BF092B4
:1016E000EF08E092EE082881398137FDE4C080914F
:1016F0000F0390911003281B390B3093560B209346
:10170000550BF90120912703309128032E0F3F1F1D
:10171000309328032093270386E0213438070CF404
:10172000ADC080E496E0909328038093270320E4E3
:1017300036E008811981C901880F991F820F931F14
:10174000AC01662757FD6095762FCF01880F991F52
:101750009F01220F331F220F331F220F331F820FCF
:10176000931FAA2797FDA095BA2F480F591F6A1FEC
:101770007B1FEE19FF09EE0FFF1FCF01AA2797FD70
:10178000A095BA2F480F591F6A1F7B1FC801880FE9
:10179000991F880F991F880F991FAA2797FDA09559
:1017A000BA2F480F591F6A1F7B1F40931D03509388
:1017B0001E0360931F037093200377FD6DC0141602
:1017C00015061606170614F417FD68C0415C5D4542
:1017D000604070400CF480C080EC9DE5A0E0B0E07B
:1017E00080931D0390931E03A0931F03B0932003C7
:1017F00024E0B595A795979587952A95D1F79C01F3
:101800009983888380910503909106031816190621
:101810000CF05DC0C90101969983888322E0803075
:101820009207F4F08FEF91E099838883DF91CF9155
:101830001F910F91FF90EF9008951092280310923E
:1018400027031092560B1092550B1092EF0810922E
:10185000EE08DF91CF911F910F91FF90EF900895C7
:1018600081509E4F1CF781E09EEF99838883DF9122
:10187000CF911F910F91FF90EF90089589EF203C39
:1018800038070CF056CF80EC99EF909328038093A3
:10189000270320EC39EF4DCF17FD98CF10921D0391
:1018A00010921E0310921F031092200380E090E01C
:1018B000A0E0B0E09DCF80910F0390911003280F1E
:1018C000391F3093560B2093550BF9011BCFC901DB
:1018D000019799838883A2CF80911D0390911E0365
:1018E000A0911F03B0912003803422EA92072FEFCA
:1018F000A2072FEFB2070CF07BCF80E492EAAFEFA4
:10190000BFEF80931D0390931E03A0931F03B0931A
:1019100020036ECFEF92FF920F931F93CF93DF932D
:10192000EC0188819981892B09F4B2C0E090A1056E
:10193000F090A205F092B709E092B60928813981AA
:1019400037FDE4C080910D0390910E03281B390BE5
:101950003093A2052093A105F90120912503309130
:1019600026032E0F3F1F309326032093250386E086
:10197000213438070CF4ADC080E496E09093260340
:101980008093250320E436E008811981C901880F7E
:10199000991F820F931FAC01662757FD6095762F24
:1019A000CF01880F991F9F01220F331F220F331F72
:1019B000220F331F820F931FAA2797FDA095BA2FDE
:1019C000480F591F6A1F7B1FEE19FF09EE0FFF1FFB
:1019D000CF01AA2797FDA095BA2F480F591F6A1F5C
:1019E0007B1FC801880F991F880F991F880F991FA7
:1019F000AA2797FDA095BA2F480F591F6A1F7B1F72
:101A00004093210350932203609323037093240394
:101A100077FD6DC0141615061606170614F417FD8B
:101A200068C0415C5D45604070400CF480C080EC53
:101A30009DE5A0E0B0E08093210390932203A09362
:101A40002303B093240354E0B595A7959795879504
:101A50005A95D1F79C0199838883809107039091CF
:101A60000803181619060CF05DC0C9010196998388
:101A7000888322E080309207F4F08FEF91E0998321
:101A80008883DF91CF911F910F91FF90EF90089580
:101A900010922603109225031092A2051092A10520
:101AA0001092B7091092B609DF91CF911F910F9153
:101AB000FF90EF90089581509E4F1CF781E09EEFBC
:101AC00099838883DF91CF911F910F91FF90EF90C1
:101AD000089589EF203C38070CF056CF80EC99EF41
:101AE000909326038093250320EC39EF4DCF17FD0B
:101AF00098CF109221031092220310922303109288
:101B0000240380E090E0A0E0B0E09DCF80910D0341
:101B100090910E03280F391F3093A2052093A10541
:101B2000F9011BCFC901019799838883A2CF8091C6
:101B3000210390912203A0912303B09124038034C8
:101B400022EA92072FEFA2072FEFB2070CF07BCF0C
:101B500080E492EAAFEFBFEF8093210390932203DA
:101B6000A0932303B09324036ECF85B7806185BF14
:101B70002FEF21B912B887EF84B980EE85B980EFD5
:101B800087B980EB88B98CEF8AB983E08BB92DB91E
:101B90001EB810BA23BB90917304992399F414BA18
:101BA00020930101109202018FE080930401809143
:101BB0000501109205011092070120930A0110926D
:101BC0000B010895913089F414BA20930101109209
:101BD00002018FE0809304018093050110920701B8
:101BE00020930A0110920B010895923099F488E035
:101BF00084BB20930101109202018FE080930401C5
:101C0000809305011092070120930A0187EF8093CA
:101C10000B01089520930101109202018FE080933F
:101C200004011092070120930A01992341F2913097
:101C300031F2923059F308951092B8001092BC001E
:101C40000895589A599A1092B90081E08093B8008B
:101C50000895982F84EA8093BC008091BC0087FF90
:101C6000FCCF8091B900887F883021F0803111F05D
:101C700081E008959093BB0084E88093BC0080913C
:101C8000BC0087FFFCCF9091B900987F983129F074
:101C900080E0903409F081E0089580E00895982F65
:101CA00024EA34E844E92093BC008091BC0087FF1B
:101CB000FCCF8091B900887F883011F0803199F78E
:101CC0009093BB003093BC008091BC0087FFFCCF99
:101CD0008091B900887F803211F0883539F44093C3
:101CE000BC008091BC0084FDFCCFDDCF089584E969
:101CF0008093BC008091BC0084FDFCCF089580934C
:101D0000BB0084E88093BC008091BC0087FFFCCFBF
:101D10008091B90090E0887F883209F091E0892FA6
:101D2000089584EC8093BC008091BC0087FFFCCFB9
:101D30008091BB00089584E88093BC008091BC0032
:101D400087FFFCCF8091BB000895982F84EA809391
:101D5000BC008091BC0087FFFCCF8091B900887FD8
:101D6000883021F0803111F081E008959093BB001C
:101D700084E88093BC008091BC0087FFFCCF9091E9
:101D8000B900987F983129F080E0903409F081E023
:101D9000089580E008951092C50080E18093C4000A
:101DA000E0ECF0E0808182608083E1ECF0E0808113
:101DB00088698083E2ECF0E080818660808308950A
:101DC0001092CD0080E18093CC00E8ECF0E08081BF
:101DD00082608083E9ECF0E0808188618083EAECB6
:101DE000F0E080818660808308951092C000109298
:101DF000C1001092C2000895982F8091C00085FF05
:101E0000FCCF9093C600662321F08091C00086FF2E
:101E1000FCCF0895982F8091C80085FFFCCF909348
:101E2000CE00662321F08091C80086FFFCCF089584
:101E30008091C0008095881F8827881F089520E022
:101E400030E08091C00087FD0AC02F5F3F4F2739E7
:101E50003105B9F781E080933A0380E008958091DD
:101E6000C60008951F920F920FB60F920BB60F92F5
:101E700011242F933F934F935F936F937F938F938F
:101E80009F93AF93BF93EF93FF939091C600809180
:101E900070048E30C1F18F3031F180910D028823B2
:101EA00009F046C080913F04813009F446C0823079
:101EB00061F540914104442309F45EC0413029F5A5
:101EC000392F20E08091310390913203822B932BA4
:101ED0009093320380933103409340041092410465
:101EE00040930D0212C09B3289F19D32E9F1973681
:101EF00009F44AC0933749F48DEF9FE060917E0565
:101F00000E94855802C09A3A59F1FF91EF91BF9112
:101F1000AF919F918F917F916F915F914F913F9181
:101F20002F910F900BBE0F900FBE0F901F90189522
:101F300010920D0290933F04E8CF9A3A91F19535B3
:101F400021F780930D0210923F04DFCF80917E0530
:101F50008F3F19F08F5F80937E0580936600D5CF09
:101F600081E08093F804D1CF80917E058823A9F386
:101F7000815080937E05F1CF90933103109232030C
:101F800081E080934104C1CF8091430461E00E94CD
:101F9000FC0E8091660080937E0561E00E94FC0E3D
:101FA000B4CF80934204B1CF86B146B126B166B1B9
:101FB00030E0287030703595279535952795359503
:101FC0002795220F331F50E0447050705595479568
:101FD00055954795240F351F220F331F70E062700F
:101FE000707075956795260F371F220F331F81700C
:101FF000820F08951F920F920FB60F9211240F9027
:102000000FBE0F901F90189560916C0470916D0435
:1020100080916E0490916F04089581E08093DB02BB
:10202000089580E090E0A0E0B0E08093F10290930A
:10203000F202A093F302B093F4028093ED02909326
:10204000EE02A093EF02B093F00280939704909376
:102050009804A0939904B0939A0480939F0490935A
:10206000A004A093A104B093A2048093A30490932E
:10207000A404A093A504B093A6048093BF049093F6
:10208000C004A093C104B093C2048093BB04909396
:10209000BC04A093BD04B093BE040895F89414BC8E
:1020A00015BC10926E0010922001109221018EEF4B
:1020B0009FE00E94575890933203809331038DEF35
:1020C0009FE00E944F58982F80937E0581508E3F4D
:1020D000B0F5909366002091310330913203C9012D
:1020E00081589C40039710F4109273048CE02038C0
:1020F000380771F124583C4018F082E08093730453
:102100000E94EE310E94B50D0E9418110E947317B3
:102110000E94E1350E9430010E9423038091340324
:10212000882329F4809133038160809333030E94D4
:10213000CB0E0E94B53E0E94750778940895609179
:10214000660060937E058DEF9FE00E948558C3CFA7
:1021500081E080937304D4CFCF93DF939EE1899F76
:10216000E0011124809168008D7F80936800809148
:102170006C008F7780936C00D99A10927A008091CE
:102180007A00806180937A00109290001092910002
:102190001092710088B3876088BB1092A0001092E3
:1021A000A1001092720089B3876089BB10928000F1
:1021B000109281000E94F50E0E943C010E941C0EAC
:1021C0000E94B50D83B78F6083BF81E0809370005C
:1021D0008091B0008D7F8093B0008091B1008760C6
:1021E0008093B100209719F088952197E9F713BEE5
:1021F0008091B100887F8093B1001092700080912F
:10220000B00082608093B0008FEF809308028093CB
:10221000090280930A021092120310921103109285
:102220001403109213030E944E10DF91CF91089572
:10223000EAE7F0E010822BE730E0D9011C92ACE72E
:10224000B0E01C928081866080838C9180648C9346
:10225000808180628083D9018C91887F8C9380817A
:1022600088608083808180688083808180648083AF
:1022700008951F920F920FB60F920BB60F92112472
:102280001F932F933F934F935F936F937F938F93FE
:102290009F93AF93BF93EF93FF9380916C049091C2
:1022A0006D04A0916E04B0916F048F3F2FEF9207E1
:1022B0002FEFA2072FEFB20709F4B9C00196A11DB5
:1022C000B11D80936C0490936D04A0936E04B09341
:1022D0006F0480917800482F50E020917900922F70
:1022E00080E0482B592B8091D502823009F4BDC182
:1022F000833008F44CC0843009F4E0C1843008F025
:102300002FC18091FD029091FE02480F591F5695F2
:1023100047955093FE024093FD029091F404923051
:1023200009F04BC080914405813009F47BC28130B3
:1023300008F0F1C180914605813009F407C39091FE
:10234000D60280913F02883008F050C180917B0016
:10235000877F80937B0080913F02805C80937C002C
:10236000923009F450C1FF91EF91BF91AF919F91CD
:102370008F917F916F915F914F913F912F911F911D
:102380000F900BBE0F900FBE0F901F9018958823D3
:1023900009F456C0813061F48091FF0290910003EE
:1023A000480F591F56954795509300034093FF02DD
:1023B0009091F404923009F4B5CF913009F434C10E
:1023C000992309F0BCCF9091D602923009F432C320
:1023D000933008F0D5C1992309F471C2913009F006
:1023E000B0CF8091410280933F028091440280935C
:1023F000D8021092D50282E08093D6021091F204A6
:10240000113009F410C4123009F099CF80914002C4
:10241000873109F094CF1093F40480914605813000
:1024200009F494C21092F4049091D6028ACF1092CB
:102430006C0410926D0410926E0410926F0449CFD8
:10244000609140026E3009F4D1C2E62FF0E0DF0166
:10245000AA0FBB1FAB5BBD4F11965C934E9360FF01
:1024600072C0EE0FFF1FED5BFD4F408151812D913A
:102470003C91862F8695A82FB0E0421B530BAA0FE4
:10248000BB1FFD01E357FD4F80819181481B590B14
:10249000FD01EB58FD4F5183408357FDE8C2415089
:1024A000544024F080E094E091838083603170F4A4
:1024B000FD01EB58FD4F0190F081E02DEC33F1056B
:1024C0000CF0F4C2A352BD4FED93FC9380919504A0
:1024D000882309F406C28091850290918602845A6D
:1024E0009140B4F08091870290918802845A914083
:1024F0007CF08091890290918A02845A914044F044
:1025000080918B0290918C02845A91400CF0E9C129
:1025100081E080939604109214031092130310929A
:10252000A9001092A8001092AB001092AA0010927D
:1025300012031092110310929900109298001092B9
:102540009B0010929A00862F8F5F80934002883103
:1025500008F42ECF1092400281E08093DC0228CF55
:10256000863009F025CF8091220590E0209140022D
:10257000880F991F880F991F880F991F820F911D2F
:10258000880F991FE0919708F0919808E80FF91FBC
:102590005183408320914002822F90E0880F991F41
:1025A000E091650BF091660BE80FF91F8081918136
:1025B0008417950720F45183408320914002822F95
:1025C00090E0880F991FE091F505F091F605E80F6E
:1025D000F91F808191814817590720F45183408366
:1025E000209140022F5F20934002E2CE80917B0039
:1025F000886080937B0080913F02885C80937C00A0
:10260000923009F0B0CE8091F404882309F0ABCE6B
:1026100080917304882309F0ABC080910501807F0D
:102620008093050112B89FCE20912105263009F430
:102630004EC2273008F0D4C0223009F455C22330EE
:1026400008F470C1243009F4D5C2253008F4C4C29E
:10265000809140028F5F80933F0286E08093D50295
:10266000809321059091D6026CCE8091050288233B
:1026700009F49ECE63999CCE64999ACE282F2F5F41
:1026800020930502253008F493CE80911103909198
:102690001203892B51F080910B0390910C03840F4E
:1026A000951F90930C0380930B03283009F080CE84
:1026B0001092050281E0809304027ACE9091060286
:1026C000992309F475CE8091000183FD71CE80912C
:1026D000000184FD6DCE292F2F5F20930602253047
:1026E00008F466CE8091130390911403892B51F066
:1026F0008091090390910A03840F951F90930A0318
:1027000080930903283009F053CE1092060281E02D
:10271000809303024DCE833009F4ABC0843009F0BE
:102720000ECE809152058F5F8093520590E02091EC
:102730004E0530914F058217930709F40CC1809123
:10274000410280933F02809144028093D80280919D
:10275000D702882309F4D3C0813009F4C2C285E0CE
:102760008093D50283E0809344059091D602E9CD11
:10277000813009F073C18FEF8093050112B8F3CD5A
:10278000933009F443C1943009F0DBCD80914202CB
:1027900080933F02809143028093D7028091D802B8
:1027A000882309F075C183E08093D5021092D60288
:1027B000209140022E3009F42BC2422F50E020FF1E
:1027C000BECD203108F058C2269581E090E002C0CD
:1027D000880F991F2A95E2F782B99091D602B1CD60
:1027E000293009F48FC12A3008F08DC0273009F450
:1027F000E2C1283009F0A3CD8091420280933F02CC
:10280000809143028093D7028091D802882309F0F7
:102810007EC283E08093D50289E080932105909168
:10282000D6028FCD80917304882309F45DC0813076
:1028300009F01EC28FEF8093050112B8809141020A
:1028400080933F02809144028093D80285E0809378
:10285000D5028093F50482E080934405809154056D
:10286000882309F0FFC081E0809354059091D6023F
:1028700068CD809152058F5F8093520590E0209142
:102880004E0530914F058217930709F493C080914C
:10289000420280933F02809143028093D70280914D
:1028A000D802882341F1813009F41FC285E080936A
:1028B000D50284E0809344059091D60242CD809168
:1028C0004002869580933F028091D702882309F0C9
:1028D000E6C081E08093D50281E08093D60291E04A
:1028E00030CD109296042FCE80910501807F809389
:1028F000050112B8A3CF83E08093D502DACF81E03F
:102900008093D5022FCF2B3009F447C12B3008F428
:102910001AC12C3009F013CD85E08093D502909137
:10292000D6020FCD222309F402C1213009F007CDD0
:10293000809140028F5F80933F0286E08093D502B2
:1029400082E0809321059091D602FBCC80934405D0
:102950009091D602F6CC1092520580914D058823B5
:1029600009F09FC181E080934D0580915405882333
:1029700009F001C28AEA82B9809151058F5F809384
:10298000510590915005891709F0D9CE80914C05D9
:102990008F5F80934C058C3009F473C282E0809382
:1029A000F50482E08093440585E08093D502909100
:1029B000D602C7CC1092520580914D05882309F0AC
:1029C00074C181E080934D0580915405882309F0FE
:1029D000D5C18AEA82B9809151058F5F80935105F4
:1029E00090915005891709F052CFD0CF8091DB022A
:1029F000823009F02ACD5093DA024093D902109226
:102A0000DB0246988FE080934002D2CC8091410255
:102A100080933F02809144028093D8028091D70234
:102A2000882341F581E08093D50284E08093D6022B
:102A300094E087CC8091420280933F0280914302D0
:102A40008093D7028091D8028823D9F483E08093C1
:102A5000D50283E08093D60293E073CC823009F4F0
:102A60008ACE81CC109254059091D6026ACC118204
:102A700010821CCD813009F460C185E08093D502BD
:102A8000D4CF813009F451C185E08093D502E1CFE4
:102A9000813009F456C185E08093D50287CE81301C
:102AA00009F447C185E08093D50216CFCF01CC96BB
:102AB00095958795883791050CF0FBC0A352BD4FC3
:102AC000FC97F595E795FC96ED93FC93FFCC8091F0
:102AD00040028F5F80933F022093D50287E080936E
:102AE00021059091D6022DCC809140028F5F80937A
:102AF0003F0286E08093D50283E080932105909188
:102B0000D6021FCC8091410280933F028091440203
:102B10008093D8028091D702882309F0F1C0909366
:102B2000D5028AE0809321059091D6020ACC1092BA
:102B3000400290933F0286E08093D5029093210556
:102B40009091D602FECB8091420280933F02809109
:102B500043028093D7028091D802882309F0C9C02C
:102B600083E08093D50280913B058E3F18F48F5F00
:102B700080933B05909122059F5F90932205809161
:102B8000F504843009F4FDC0943109F416C18BE0DA
:102B9000809321059091D602D4CB10923F02809170
:102BA000D702882309F0BAC09093D502109221056C
:102BB0009091D602C6CB8091410280933F028091D2
:102BC00044028093D80286E08093D50288E0809307
:102BD00021059091D602B5CB809140028F5F809302
:102BE0003F0286E08093D50284E080932105909196
:102BF000D602A7CB809140028F5F80933F0286E090
:102C00008093D50285E0809321059091D60299CBDF
:102C10008091DB02813009F0D0CD82E08093DB022D
:102C2000469A90E08ECB80914002873109F0EBCB41
:102C300010923F021092DB021092210510922205A1
:102C4000E091650BF091660B80E1DF011D928A95A2
:102C5000E9F78091F5059091F6056FEF70E040E19E
:102C600050E00E9438581093F4041091F204CBCB3A
:102C7000823009F4DFCDE2CD80917304882309F01E
:102C800063C0405150405595479581E090E002C0A7
:102C9000880F991F4A95E2F7809305019091D6021B
:102CA00050CB10924D0512B867CE10924D0512B858
:102CB00092CECF01845D9E4F95958795959587958A
:102CC000843B91050CF06AC0A352BD4FE45BF04019
:102CD000F595E795F595E795E858FF4FED93FC934B
:102CE000F5CB82E08093D5023DCD84E08093D50280
:102CF000E0CD813009F4C1C085E08093D50233CFA7
:102D0000813009F4AEC085E08093D5020ACF8130CE
:102D100009F4ABC085E08093D5027ECD813009F403
:102D2000A8C085E08093D50241CF84E08093D5028E
:102D300090CE82E08093D502CFCD82E08093D50201
:102D400074CE9093D50232CD813009F0B1C020917C
:102D50000501405150405595479581E090E002C0F3
:102D6000880F991F4A95E2F7809582238093050189
:102D70009091D602E6CA85E582B9FECD85E582B995
:102D80002ACE1092220590913B0580912C05981730
:102D900008F4FDCE85E08093F504F9CEA352BD4F33
:102DA000E45AF140F595E795F595E795F595E795A2
:102DB000EC54FF4FED93FC9389CB109222052091A8
:102DC0007B0830917C0880919708909198089093A7
:102DD0007C0880937B083093980820939708409153
:102DE0007805509179058091650B9091660B9093D1
:102DF0007905809378054093650B5093660B20917D
:102E00006405309165053093A70B2093A60B809144
:102E1000F5059091F60590936505809364053093D0
:102E2000F6052093F505FA0180E1DF011D928A95F0
:102E3000E9F78091F5059091F6056FEF70E040E1BC
:102E400050E00E9438588091F504813009F445C063
:102E50008091F504853009F09ACE86E08093F504E0
:102E600096CE82E08093D5025CCE84E08093D5023A
:102E7000D3CC82E08093D50299CE84E08093D502B2
:102E800072CE81E08093F504109246051092D6022E
:102E90001092F4040E94203F12B80E940410609324
:102EA0004705709348058093490590934A0579CD6D
:102EB000823009F044CA2091050140515040559597
:102EC000479581E090E002C0880F991F4A95E2F78C
:102ED000809582238093050132CA82E08093F504B5
:102EE00010923B05B5CF0F931F93CF93DF93E0E98B
:102EF000F0E01082A1E9B0E01C9221E730E0E901A6
:102F0000188240EA50E0EA01188261EA70E0EB01C1
:102F1000188202E710E0E8011882808183688083CC
:102F20008081836080838C918B608C93809111036E
:102F300090911203909399008093980010929B00B7
:102F400010929A00D9018C9181608C9380818F7549
:102F500080838EB1877E8EB9EA01888183688883F9
:102F6000FB0180818B608083809113039091140317
:102F70009093A9008093A8001092AB001092AA0031
:102F8000D8018C9181608C9388818F758883E2E071
:102F9000F1E08081877E8083DF91CF911F910F9137
:102FA00008952EEF8130920714F481E09EEF9C018A
:102FB00082E02030380714F02FEF31E0C901089586
:102FC000282F332727FD309537FD29C030932E0356
:102FD00020932D0387FD1AC0309318032093170305
:102FE000C90122E0803092073CF08FEF91E090938E
:102FF000180380931703089581509E4F34F481E0A5
:103000009EEF9093180380931703089588279927BC
:10301000821B930B9093180380931703E2CF309594
:1030200021953F4FD3CF282F332727FD309537FDEC
:1030300029C03093300320932F0387FD1AC03093AB
:10304000160320931503C90122E0803092073CF05B
:103050008FEF91E0909316038093150308958150AC
:103060009E4F34F481E09EEF9093160380931503F6
:10307000089588279927821B930B909316038093BA
:103080001503E2CF309521953F4FD3CF8091810535
:10309000882309F03FC0E091E908E23008F477C0E6
:1030A0004E2F50E0FA01EE0FFF1FEE0FFF1FEE0F45
:1030B000FF1FEE0FFF1FEE50F74F8081918120918F
:1030C000A40B3091A50B8217930734F001969093CF
:1030D000A50B8093A40B9C01FA013197DF01A29507
:1030E000B295B07FBA27A07FBA27A05FB64F809174
:1030F000DC049091DD048D939C93EE0FFF1FEE0F87
:10310000FF1FEE0FFF1FEE0FFF1FEE5EF64F318326
:1031100020830895813031F0823009F470C083300B
:10312000E9F10895E091E908E23008F49EC04E2FDD
:1031300050E0FA01E295F295F07FFE27E07FFE274E
:10314000E051F74F868197812091A40B3091A50B18
:103150008217930734F001969093A50B8093A40BEC
:103160009C01FA013197E295F295F07FFE27E07F0E
:10317000FE27DF01AC5EB64F8091DE049091DF0444
:103180008D939C93E05FF64F3783268308954E2FEF
:1031900050E02091A40B3091A50B9ECFE091E9085F
:1031A000E23008F470C04E2F50E0FA01E295F2953B
:1031B000F07FFE27E07FFE27E051F74F8685978559
:1031C0002091A40B3091A50B8217930734F0019640
:1031D0009093A50B8093A40B9C01FA01E295F295C4
:1031E000F07FFE27E07FFE27E050F74F8091DE045E
:1031F0009091DF0495878487378726870895E0912B
:10320000E908E230C8F14E2F50E0FA01E295F2955C
:10321000F07FFE27E07FFE27E051F74F8285938500
:103220002091A40B3091A50B8217930734F00196DF
:103230009093A50B8093A40B9C01FA013197EE0F9C
:10324000FF1FEE0FFF1FEE0FFF1FEE0FFF1FDF012F
:10325000A85EB64F8091DC049091DD048D939C9321
:10326000E05FF64F3387228708954E2F50E020917C
:10327000A40B3091A50B75CF4E2F50E02091A40BDD
:103280003091A50BDACF4E2F50E02091A40B309156
:10329000A50BA3CF8F929F92AF92BF92CF92DF9256
:1032A000EF92FF920F931F93CF93DF93462F9C01D2
:1032B000220F331F220F331F280F391F211531050D
:1032C00009F492C0862F8250823008F49DC04423B6
:1032D00009F077C0609112097091130962177307A2
:1032E0000CF099C0809122099091230982179307CD
:1032F0000CF01EC280913209909133098217930716
:103300000CF066C38091420990914309821793079C
:103310000CF05BC380915209909153098217930777
:103320000CF059C380916209909163098217930749
:103330000CF054C38091720990917309821793071E
:103340000CF052C3809182099091830982179307F0
:103350000CF047C3809192099091930982179307CB
:103360000CF045C3B901882777FD8095982F0E94FE
:10337000A6557B018C016091900970919109882775
:1033800077FD8095982F0E94A6559B01AC01C8013E
:10339000B7010E94BF567B018C0160919209709128
:1033A0009309882777FD8095982F0E94A6559B0149
:1033B000AC01C801B7010E940B550E9473559B01D7
:1033C00015C04330C1F1423009F424C1413009F441
:1033D000ACC0442339F2413009F4EFC0423009F463
:1033E00061C1433009F46FC020E030E0C901DF91D2
:1033F000CF911F910F91FF90EF90DF90CF90BF90F2
:10340000AF909F908F900895309521953F4F442322
:1034100009F460CFD6CF8091100990911109AC01C9
:10342000249FC001259F900D349F900D11240E9470
:103430007D579B01DBCF60911E0970911F096217B8
:1034400073070CF062C180912E0990912F098217A9
:1034500093070CF06DC180913E0990913F0982174E
:1034600093070CF0B5C280914E0990914F098217D5
:1034700093070CF0AAC280915E0990915F098217B0
:1034800093070CF0A8C280916E0990916F09821782
:1034900093070CF0A3C280917E0990917F09821757
:1034A00093070CF0A1C280918E0990918F09821729
:1034B00093070CF096C280919E0990919F09821704
:1034C00093070CF094C2B901882777FD8095982F57
:1034D0000E94A6557B018C0160919C0970919D0909
:1034E000882777FD8095982F0E94A6559B01AC01F7
:1034F000C801B7010E94BF567B018C0160919E09F3
:1035000070919F09882777FD8095982F0E94A65576
:103510009B01AC01C801B7010E940B550E94735575
:1035200022273327261B370B61CF60911609709134
:103530001709621773070CF060C0809126099091FB
:103540002709821793070CF0F3C0809136099091F8
:103550003709821793070CF03BC28091460990917E
:103560004709821793070CF030C280915609909159
:103570005709821793070CF02EC28091660990912B
:103580006709821793070CF029C280917609909100
:103590007709821793070CF027C2809186099091D2
:1035A0008709821793070CF01CC2809196099091AD
:1035B0009709821793070CF01AC2B901882777FD83
:1035C0008095982F0E94A6557B018C0160919409EB
:1035D00070919509882777FD8095982F0E94A655B0
:1035E0009B01AC01C801B7010E94BF567B018C0151
:1035F0006091960970919709D4CE809114099091A9
:103600001509FC012E9FC0012F9F900D3E9F900D2C
:1036100011240DCF60911A0970911B09621773076D
:103620000CF060C080912A0990912B0982179307B2
:103630000CF07EC080913A0990913B098217930764
:103640000CF0C6C180914A0990914B0982179307EB
:103650000CF0BBC180915A0990915B0982179307C6
:103660000CF0B9C180916A0990916B098217930798
:103670000CF0B4C180917A0990917B09821793076D
:103680000CF0B2C180918A0990918B09821793073F
:103690000CF0A7C180919A0990919B09821793071A
:1036A0000CF0A5C1B901882777FD8095982F0E945D
:1036B000A6557B018C016091980970919909882722
:1036C00077FD8095982F0E94A6559B01AC01C801FB
:1036D000B7010E94BF567B018C0160919A097091DD
:1036E0009B0910CF8091180990911909AC01249F72
:1036F000C001259F900D349F900D11240E947D578D
:1037000022273327261B370B71CE80911C099091FD
:103710001D09FC012E9FC0012F9F900D3E9F900D13
:1037200011240E947D5722273327261B370B5ECE9C
:10373000C1E0D0E0C930D10509F44BCE442309F0F3
:1037400059C0FE013197EE0FFF1FEE0FFF1FEE0F66
:10375000FF1FEE0FFF1FDF01AE5EB64FCD90DC9076
:10376000E05FF64FA080B1802C193D09B901882790
:1037700077FD8095982F0E94A6557B018C01FE0154
:10378000E295F295F07FFE27E07FFE27E05FF64F9F
:10379000608171816A197B09882777FD8095982F50
:1037A0000E94A6559B01AC01C801B7010E94BF56FB
:1037B0007B018C01CC0FDD1FCC0FDD1FCC0FDD1F7B
:1037C000CC0FDD1FCE5ED64F688179816C197D09E3
:1037D000882777FD8095982F0E94A6559B01AC0104
:1037E000C801B7010E940B550E9473559B012A0D19
:1037F0003B1DFCCD413009F44EC0423009F489C074
:10380000433009F0F1CDC295D295D07FDC27C07F3F
:10381000DC27FE01E050F74FA684B78484849584AA
:103820002A193B09B901882777FD8095982F0E94B6
:10383000A6556B017C018E01005F164FF80164856F
:10384000758568197909882777FD8095982F0E94DA
:10385000A6559B01AC01C701B6010E94BF566B0182
:103860007C01F801668577856A197B09882777FDD1
:103870008095982F0E94A6559B01AC01C701B60107
:103880000E940B550E947355680D791D222733271E
:10389000261B370BABCDFE013197E295F295F07FF9
:1038A000FE27E07FFE27DF01A05FB64F1696CD9082
:1038B000DC901797EC5EF64FA080B1802C193D0983
:1038C000B901882777FD8095982F0E94A6557B0126
:1038D0008C01C295D295D07FDC27C07FDC27FE010A
:1038E000EC5EF64F608171816A197B09882777FD4C
:1038F0008095982F0E94A6559B01AC01C801B70185
:103900000E94BF567B018C01C05FD64F6E817F81C4
:103910005DCFDE011197FD01E295F295F07FFE2764
:10392000E07FFE27E05FF64FC284D384AA0FBB1F5F
:10393000AA0FBB1FAA0FBB1FAA0FBB1FA85EB64FC3
:10394000AD90BC902C193D09B901882777FD809571
:10395000982F0E94A6557B018C01CC0FDD1FCC0F48
:10396000DD1FCC0FDD1FCC0FDD1FFE01E85EF64F23
:10397000608171816A197B09882777FD8095982F6E
:103980000E94A6559B01AC01C801B7010E94BF5619
:103990007B018C01C05FD64F6A857B856C197D09E0
:1039A000882777FD8095982F0E94A6559B01AC0132
:1039B000C801B7010E940B550E9473556A0D7B1D0B
:1039C00022273327261B370B11CDC3E0D0E0B2CE20
:1039D000C2E0D0E0AFCEC4E0D0E0ACCEC5E0D0E0F5
:1039E000A9CEC7E0D0E0A6CEC6E0D0E0A3CEC8E026
:1039F000D0E0A0CE8F929F92AF92BF92CF92DF92F3
:103A0000EF92FF920F931F93CF93DF93C0910F0319
:103A1000D0911003809111039091120397FDEAC099
:103A200060911409709115096C177D070CF067C13E
:103A300088248A94982C80912409909125098C17C8
:103A40009D074CF080E09FEF89169FEF990609F4DF
:103A500075C1882E992480913409909135098C176D
:103A60009D0734F0EFEF8E16EFEF9E0609F462C16A
:103A700080914409909145098C179D0734F0FFEF20
:103A80008F16FFEF9F0609F451C180915409909160
:103A900055098C179D0734F02FEF82162FEF9206F1
:103AA00009F440C180916409909165098C179D07C4
:103AB00034F03FEF83163FEF930609F42FC1809156
:103AC0007409909175098C179D0734F08FEF881653
:103AD0008FEF980609F41EC18091840990918509A1
:103AE0008C179D0734F09FEF89169FEF990609F414
:103AF0000DC1C0909409D0909509CC16DD0634F024
:103B0000EFEF8E16EFEF9E0609F4FCC0209709F444
:103B100060C08114910409F442C13FEF83163FEF66
:103B2000930609F40DC1F4013197E295F295F07F07
:103B3000FE27E07FFE27DF01AC5EB64FCD90DC9024
:103B4000E05FF64FA680B780CC19DD09BE0188275B
:103B500077FD8095982F0E94A6557B018C01829459
:103B60009294B0EF9B2298248B229824F401E05F7A
:103B7000F64F668177816A197B09882777FD8095E2
:103B8000982F0E94A6559B01AC01C801B7010E9465
:103B9000BF567B018C0184E199E0880E991EF401E7
:103BA000608171816C197D09882777FD8095982F38
:103BB0000E94A6559B01AC01C801B7010E940B559C
:103BC0000E9473556A0D7B1D7093E3046093E204B9
:103BD00004C01092E3041092E204DF91CF911F9190
:103BE0000F91FF90EF90DF90CF90BF90AF909F909C
:103BF0008F90089560911C0970911D096C177D07C5
:103C00000CF02BC10FEF1FEF80912C0990912D0923
:103C10008C179D072CF02FEF0F3F120709F420C1DE
:103C200080913C0990913D098C179D072CF03FEF46
:103C30000F3F130709F426C180914C0990914D095B
:103C40008C179D072CF08FEF0F3F180709F417C151
:103C500080915C0990915D098C179D072CF09FEF76
:103C60000F3F190709F408C180916C0990916D0903
:103C70008C179D072CF0EFEF0F3F1E0709F4F9C0DA
:103C800080917C0990917D098C179D072CF0FFEFA6
:103C90000F3F1F0709F4EAC080918C0990918D09AC
:103CA0008C179D072CF02FEF0F3F120709F4DBC094
:103CB000C0909C09D0909D09CC16DD062CF03FEFFA
:103CC0000F3F130709F47EC00115110509F07CC0F0
:103CD00080911E0990911F099C01C29FC001C39F42
:103CE000900DD29F900D11240E947D57CB0190958D
:103CF00081959F4F9093E3048093E2046ECF8824D4
:103D0000992499CE88E0882E912C00CF97E0892EB7
:103D1000912CEFCE26E0822E912CDECE35E0832E44
:103D2000912CCDCE44E0842E912CBCCE53E0852E38
:103D3000912CABCEE2E08E2E912C9ACE81E089CEF2
:103D40006091960970919709882777FD8095982F43
:103D50000E94A6557B018C01BE01882777FD8095C6
:103D6000982F0E94A6559B01AC01C801B7010E9483
:103D7000BF567B018C01B601882777FD8095982F6F
:103D80000E94A6559B01AC01C801B7010E940B55CA
:103D90000E9473557093E3046093E2041ECF8091F8
:103DA0001609909117099C01C29FC001C39F900DF5
:103DB000D29F900D11240E947D577093E30460936D
:103DC000E2040BCF08E010E03FEF0F3F130709F4C8
:103DD0005CC002951295107F1027007F1027F80114
:103DE000E050F74FA484B58486849784CA19DB0910
:103DF000BE01882777FD8095982F0E94A6556B01FC
:103E00007C01005F164FF80166857785681979098E
:103E1000882777FD8095982F0E94A6559B01AC01BD
:103E2000C701B6010E94BF566B017C01F801648591
:103E300075856A197B09882777FD8095982F0E94E0
:103E4000A6559B01AC01C701B6010E940B550E940B
:103E50007355680D791DCB014ACF00E010E0D4CE38
:103E600001E010E0DDCE07E010E022CF06E010E038
:103E700013CF05E010E004CF04E010E0F5CE03E03E
:103E800010E0E6CE02E010E0D7CE60919E0970917E
:103E90009F09882777FD8095982F0E94A6557B0162
:103EA0008C01BE01882777FD8095982F0E94A6552A
:103EB0009B01AC01C801B7010E94BF567B018C0178
:103EC000B601882777FD8095982F0E94A6559B0103
:103ED000AC01C801B7010E940B550E947355CB017C
:103EE00006CF8F929F92AF92BF92CF92DF92EF92C6
:103EF000FF920F931F93CF93DF93C0910D03D09147
:103F00000E03809113039091140397FDF3C0609109
:103F10001009709111096C177D070CF079C1882484
:103F20008A94982C80912009909121098C179D07E3
:103F30004CF080E09FEF89169FEF990609F487C146
:103F4000882E992480913009909131098C179D0712
:103F500034F0EFEF8E16EFEF9E0609F474C18091F6
:103F60004009909141098C179D0734F0FFEF8F169F
:103F7000FFEF9F0609F463C18091500990915109A8
:103F80008C179D0734F02FEF82162FEF920609F45D
:103F900052C180916009909161098C179D0734F09E
:103FA0003FEF83163FEF930609F441C180917009FA
:103FB000909171098C179D0734F08FEF88168FEF61
:103FC000980609F430C180918009909181098C177D
:103FD0009D0734F09FEF89169FEF990609F41FC1E2
:103FE000C0909009D0909109CC16DD0634F0EFEF27
:103FF0008E16EFEF9E0609F40EC1209709F469C0F2
:104000008114910409F454C13FEF83163FEF9306E6
:1040100009F41FC1D4011197FD01E295F295F07FDB
:10402000FE27E07FFE27E05FF64FC080D180AA0F19
:10403000BB1FAA0FBB1FAA0FBB1FAA0FBB1FAE5EE1
:10404000B64FAD90BC90CC19DD09BE01882777FD35
:104050008095982F0E94A6557B018C01880C991C95
:10406000880C991C880C991C880C991CF401EE5E34
:10407000F64F608171816A197B09882777FD8095E9
:10408000982F0E94A6559B01AC01C801B7010E9460
:10409000BF567B018C0180E199E0880E991EF401E6
:1040A000608171816C197D09882777FD8095982F33
:1040B0000E94A6559B01AC01C801B7010E940B5597
:1040C0000E9473556A0D7B1D7093E1046093E004B8
:1040D00004C01092E1041092E004DF91CF911F918F
:1040E0000F91FF90EF90DF90CF90BF90AF909F9097
:1040F0008F90089560911809709119096C177D07C8
:104100000CF04EC188248A94982C809128099091B3
:1041100029098C179D0734F02FEF82162FEF920696
:1041200009F441C180913809909139098C179D0794
:1041300034F03FEF83163FEF930609F44CC18091B2
:104140004809909149098C179D0734F08FEF881624
:104150008FEF980609F43BC1809158099091590955
:104160008C179D0734F09FEF89169FEF990609F48D
:104170002AC180916809909169098C179D0734F0D4
:10418000EFEF8E16EFEF9E0609F419C180917809C2
:10419000909179098C179D0734F0FFEF8F16FFEF90
:1041A0009F0609F408C180918809909189098C17AC
:1041B0009D0734F02FEF82162FEF920609F4F7C017
:1041C000C0909809D0909909CC16DD0634F03FEFE5
:1041D00083163FEF930609F47EC08114910409F021
:1041E0007DC080911A0990911B099C01C29FC0015A
:1041F000C39F900DD29F900D11240E947D57CB013B
:10420000909581959F4F9093E1048093E00465CF52
:104210008824992487CEE8E08E2E912CEECEF7E00C
:104220008F2E912CDDCEA6E08A2E912CCCCEB5E03F
:104230008B2E912CBBCE14E0812E912CAACE03E0C4
:10424000802E912C99CE82E0882E912C88CE81E010
:1042500077CE6091920970919309882777FD8095B8
:10426000982F0E94A6557B018C01BE01882777FDFF
:104270008095982F0E94A6559B01AC01C801B701FB
:104280000E94BF567B018C01B601882777FD80957F
:10429000982F0E94A6559B01AC01C801B7010E944E
:1042A0000B550E9473557093E1046093E00415CFA1
:1042B00080911209909113099C01C29FC001C39F74
:1042C000900DD29F900D11240E947D577093E104B0
:1042D0006093E00402CF98E0892E912C3FEF831683
:1042E0003FEF930609F47BC0F4013197EE0FFF1FF7
:1042F000EE0FFF1FEE0FFF1FEE0FFF1FDF01A85E87
:10430000B64FCD90DC90E05FF64FA284B384CC1919
:10431000DD09BE01882777FD8095982F0E94A6555C
:104320007B018C01F401E295F295F07FFE27E07F9E
:10433000FE27E05FF64F628573856A197B0988273F
:1043400077FD8095982F0E94A6559B01AC01C8016E
:10435000B7010E94BF567B018C01880C991C880C08
:10436000991C880C991C880C991C88E199E0880E8E
:10437000991EF401608171816C197D09882777FD90
:104380008095982F0E94A6559B01AC01C801B701EA
:104390000E940B550E9473556A0D7B1DCB0130CFD7
:1043A00088249924B2CEA1E08A2E912CBBCE27E09E
:1043B000822E912C05CF36E0832E912CF4CE45E051
:1043C000842E912CE3CE54E0852E912CD2CEE3E0C6
:1043D0008E2E912CC1CEF2E08F2E912CB0CE60911A
:1043E0009A0970919B09882777FD8095982F0E94E4
:1043F000A6557B018C01BE01882777FD8095982FFB
:104400000E94A6559B01AC01C801B7010E94BF568E
:104410007B018C01B601882777FD8095982F0E943B
:10442000A6559B01AC01C801B7010E940B550E9423
:104430007355CB01E5CE1F920F920FB60F92112448
:104440008F939F93809196048823C1F11092140357
:10445000109213031092A9001092A8001092AB00C2
:104460001092AA001092FE021092FD0280910703A2
:104470009091080397FD79C081E0809344028EE01B
:104480008093410281E0809306028091A0008F75A5
:104490008093A00080910201877E80930201809129
:1044A0007200897F8093720089B3866089BB9F9177
:1044B0008F910F900FBE0F901F9018951092FE02D3
:1044C0001092FD028091130390911403009771F2F2
:1044D000181619062CF5109244028FE080934102C1
:1044E0008091A0008F7D8093A000809172008B7FCF
:1044F00080937200809102018F7E809302018091EF
:10450000A00080688093A0008091720082608093F8
:1045100072009F918F910F900FBE0F901F90189572
:10452000109244028EE0809341028091A0008F7728
:104530008093A000809172008D7F809372008091A3
:104540000201877F809302018091A00080628093A6
:10455000A000809172008460809372009F918F917F
:104560000F900FBE0F901F90189581E0809344022A
:104570008FE08093410286CF1F920F920FB60F9269
:1045800011248F939F9391E0909344028EE0809347
:104590004102909306029F918F910F900FBE0F9052
:1045A0001F9018951F920F920FB60F9211248F93A0
:1045B0009F9391E0909344028FE080934102909307
:1045C00006029F918F910F900FBE0F901F9018952C
:1045D0001F920F920FB60F9211248F939F93809189
:1045E00096048823B1F110921203109211031092D5
:1045F00099001092980010929B0010929A001092CD
:1046000000031092FF02809105039091060397FD2D
:104610006FC081E0809343028CE08093420281E08E
:1046200080930502809190008F75809390008EB1E9
:10463000877E8EB980917100897F8093710088B3E5
:10464000866088BB9F918F910F900FBE0F901F9037
:104650001895109200031092FF028091110390911F
:104660001203009781F2181619060CF510924302F6
:104670008DE080934202809190008F7D8093900026
:10468000809171008B7F809371007498809190006D
:1046900080688093900080917100826080937100A7
:1046A0009F918F910F900FBE0F901F9018951092B1
:1046B00043028CE080934202809190008F77809338
:1046C0009000809171008D7F80937100739880912C
:1046D000900080628093900080917100846080934C
:1046E00071009F918F910F900FBE0F901F901895A2
:1046F00081E0809343028DE08093420290CF1F922D
:104700000F920FB60F9211248F939F9391E0909385
:1047100043028CE080934202909305029F918F9117
:104720000F900FBE0F901F9018951F920F920FB60B
:104730000F9211248F939F9391E0909343028DE009
:1047400080934202909305029F918F910F900FBE2C
:104750000F901F9018959F92AF92BF92CF92DF92C9
:10476000EF92FF920F931F9380919C05882351F045
:104770001F910F91FF90EF90DF90CF90BF90AF907F
:104780009F9008950E9404108B019C0140E050E02E
:1047900060E070E08091840490918504F09186043B
:1047A000B0918704E0908804C0908904A0908A04A6
:1047B000A0918B04902E981AE1E0091508F008C129
:1047C000812F891B91E0181708F0FAC0F82EFE1A05
:1047D000E1E08F1508F0EBC09E2B822F8F1BE1E0EC
:1047E000281708F0DCC0B82EB91A91E08B1508F034
:1047F000CDC0E92B832F8B1B91E0381708F0BEC08A
:10480000D82EDE1AE1E08D1508F0AFC09E2B8E2D5C
:104810008195E1E0481708F0A0C0B82FB91B91E0DE
:104820008B1708F091C0E92B8C2D8195F1E058177A
:1048300008F081C0982F9E1BE92F91E08E1708F099
:1048400071C0F92B8A2D819591E0681708F062C03C
:10485000382F3F1B21E0831708F055C0922BA195FC
:10486000A91709F4BDC00E9404109B01AC0160931C
:1048700084043093850440938604509387041092F7
:1048800088041092890410928A0410928B048091FB
:104890008C04882309F4BFC02091150330911603BE
:1048A0002115310509F0C8C010921A03109219039E
:1048B00020911703309118032115310509F4DEC04A
:1048C00040911B0350911C03429FC001439F900DD8
:1048D000529F900D112497FDD1C0421753070CF041
:1048E000D2C080911302BA01680F711D70931C032E
:1048F00060931B03261737070CF03ACF30931C0345
:1049000020931B0335CF20E0922BA195A91709F026
:10491000AACF66C090E0382F3F1B21E0831708F430
:104920009DCFF1CF90E0F92B8A2D819591E068170A
:1049300008F48ECFEFCFF0E0982F9E1BE92F91E087
:104940008E1708F47ECFEECF90E0E92B8C2D819569
:10495000F1E0581708F46ECFEECFE0E0B82FB91BA6
:1049600091E08B1708F45FCFEFCFE0E09E2B8E2D08
:104970008195E1E0481708F450CFEFCF90E0D82EB2
:10498000DE1AE1E08D1508F441CFEFCF90E0E92B7E
:10499000832F8B1B91E0381708F432CFEFCFE0E084
:1049A000B82EB91A91E08B1508F423CFEFCFE0E0D1
:1049B0009E2B822F8F1BE1E0281708F414CFEFCF36
:1049C00090E0F82EFE1AE1E08F1508F405CFEFCF46
:1049D000E0E0812F891B91E0181708F4F7CEF0CFA3
:1049E000332309F040CFEE2309F03DCFBB2309F07C
:1049F0003ACFDD2009F037CFBB2009F034CF61E09A
:104A00006F1508F430CFF61609F0B2CE7FE87915AD
:104A100008F0AECE28CF80911503909116039093A5
:104A20001A038093190380911703909118039093B0
:104A30001C0380931B039CCE4091190350911A03D1
:104A4000429FC001439F900D529F900D112497FDEE
:104A50002BCF421753074CF580911302BA01680F10
:104A6000711D70931A0360931903261737070CF012
:104A70001FCF30931A03209319031ACF10921C03EF
:104A800010921B0375CE241735070CF071CE809160
:104A90001302BA01681B710970931C0360931B0316
:104AA000621773070CF064CE29CF241735070CF07A
:104AB000FFCE80911302BA01681B710970931A032B
:104AC00060931903621773070CF0F2CED2CF2F92C6
:104AD0003F924F925F926F927F928F929F92AF928E
:104AE000BF92CF92DF92EF92FF920F931F93CF93DB
:104AF000DF9374E1872E912C909211098092100916
:104B000088E290E090932109809320098BE390E064
:104B100090933109809330098FE490E0909341099C
:104B20008093400984E690E0909351098093500966
:104B3000C8E7D0E0D0936109C09360096BE8E62E26
:104B4000F12CF0927109E09270098FE990E0909356
:104B500081098093800954EBA52EB12CB092910964
:104B6000A092900923E130E03093130920931209B9
:104B70008FE290E0909323098093220988E490E0EB
:104B800090933309809332098BE590E09093430929
:104B9000809342098DE690E09093530980935209E7
:104BA0004DE7C42ED12CD0926309C09262098FE8E0
:104BB00090E0909373098093720940EA50E050931B
:104BC0008309409382098EEA90E090939309809341
:104BD0009209309315092093140967E270E07093ED
:104BE0002509609324090CE310E010933509009324
:104BF000340920E5222E312C3092450920924409B7
:104C0000A3E6B0E0B0935509A093540927E730E03C
:104C10003093650920936409ECE8F0E0F09375099E
:104C2000E09374095093850940938409B0929509E3
:104C3000A092940987E190E0909317098093160958
:104C40009EE2492E512C509227094092260980E479
:104C500090E0909337098093360981E5682E712C96
:104C6000709247096092460981E690E09093570957
:104C70008093560980E790E09093670980936609D6
:104C8000D0927709C0927609F0928709E09286095E
:104C900088E990E09093970980939609909219097A
:104CA0008092180970932909609328091093390993
:104CB000009338098FE490E0909349098093480964
:104CC000B0935909A0935809D0936909C093680912
:104CD000F0937909E0937809509389094093880902
:104CE00083EB90E0909399098093980982E190E09A
:104CF00090931B0980931A098DE290E090932B0901
:104D000080932A0984E490E090933B0980933A09C8
:104D100087E590E090934B0980934A0989E690E0FB
:104D200090935B0980935A0930936B0920936A0929
:104D300089E890E090937B0980937A0987E990E075
:104D400090938B0980938A0988EA90E090939B095D
:104D500080939A0990921D0980921C0970932D09E5
:104D600060932C098BE390E090933D0980933C097C
:104D700030924D0920924C0984E690E090935D09B1
:104D800080935C0930936D0920936C09F0927D0942
:104D9000E0927C0950938D0940938C09B0929D0953
:104DA000A0929C0986E190E090931F0980931E09D0
:104DB00050922F0940922E0981E490E090933F0990
:104DC00080933E0970924F0960924E0980E690E010
:104DD00090935F0980935E098FE690E090936F094E
:104DE00080936E09D0927F09C0927E09F0928F095C
:104DF000E0928E0989E990E090939F0980939E0943
:104E00000E940A3FDF91CF911F910F91FF90EF9089
:104E1000DF90CF90BF90AF909F908F907F906F90DA
:104E20005F904F903F902F90089580918F0B84302A
:104E300009F4CFC1853080F0863009F460C2863035
:104E4000B0F58091E9088F5F8093E9088A3009F412
:104E5000B7C210928F0B0895813009F46BC1813075
:104E600008F073C080918105882309F056C2109222
:104E70001A03109219038091E90825E0829FC0016E
:104E80001124880F991F880F991F90931C038093FA
:104E90001B0381E080938F0B0E94041060935F0BD3
:104EA0007093600B8093610B9093620B0895873031
:104EB00009F4F8C1883079F680918105882309F4D6
:104EC000D9C0823009F4D6C020918B0230918C0277
:104ED0008091EC049091ED042817390724F4309365
:104EE000ED042093EC048091EE049091EF0482177E
:104EF000930724F43093EF042093EE040E940410EF
:104F000020915F0B3091600B4091610B5091620BCF
:104F1000621B730B840B950B6E5C7B4B8040904047
:104F200008F499CF8091EE049091EF042091EC0465
:104F30003091ED04820F931F959587959093F1041E
:104F40008093F00410928F0B0895823009F47DC194
:104F5000833009F080CF80918105882309F497C0C0
:104F6000823009F494C020918B0230918C028091A0
:104F7000F0049091F104281739070CF055C00E94F5
:104F8000041020917A0530917B0540917C05509169
:104F90007D05621B730B840B950B60937A057093F0
:104FA0007B0580937C0590937D050E94A45520E0AD
:104FB00030E040ED52E40E94BF5620E034E244E786
:104FC00059E40E940B559B01AC0164E17EE288E745
:104FD00093E40E940B550E9478557093A50B609343
:104FE000A40B2091DA043091DB0440E050E06091A2
:104FF000D4047091D5048091D6049091D7040E9476
:1050000090573093DF042093DE040E94461884E01A
:1050100080938F0B0E94041060935F0B7093600B62
:105020008093610B9093620B0E94041020915F0BA0
:105030003091600B4091610B5091620B621B730BBE
:10504000840B950B6C597D4C8840904008F403CF3D
:105050001092A50B1092A40B1092DD041092DC04A8
:105060001092DF041092DE040E94461885E08093BF
:105070008F0B089520918502309186028091EC0477
:105080009091ED04281739070CF02DCF28CF2091EF
:105090008502309186028091F0049091F1042817E6
:1050A00039070CF0C1CF0E94041020917A0530918D
:1050B0007B0540917C0550917D05621B730B840B31
:1050C000950B60937A0570937B0580937C05909394
:1050D0007D050E94A45520E030E040ED52E40E949E
:1050E000BF5620E034E244E759E40E940B559B018F
:1050F000AC0164E17EE288E793E40E940B550E94D4
:1051000078557093A50B6093A40B2091D80430912F
:10511000D90440E050E06091D0047091D1048091B6
:10512000D2049091D3040E9490573093DD042093D1
:10513000DC046BCF80918105882391F1823081F16D
:1051400020918B0230918C028091F0049091F104B7
:10515000281739070CF068CF1092DB041092DA049C
:105160001092D4041092D5041092D6041092D70451
:105170000E94041060937A0570937B0580937C05F0
:1051800090937D0582E080938F0B0E9404106093C2
:105190005F0B7093600B8093610B9093620B44CF15
:1051A00020918502309186028091F0049091F10463
:1051B000281739070CF038CF1092D9041092D80470
:1051C0001092D0041092D1041092D2041092D30401
:1051D000CFCF80918105882361F1823051F12091F8
:1051E0008B0230918C028091F0049091F10482172F
:1051F00093071CF485E080938F0B0E94041020918C
:105200005F0B3091600B4091610B5091620B621B00
:10521000730B840B950B6C597D4C8840904008F4BF
:105220001ACE1092A50B1092A40B85E080938F0BE1
:10523000089520918502309186028091F00490912A
:10524000F10482179307CCF6D5CF8091810588238E
:10525000E1F08230D1F020918B0230918C0280916C
:10526000F0049091F104821793070CF0DDCE83E0F7
:1052700080938F0B0E94041060935F0B7093600B00
:105280008093610B9093620BCFCE20918502309179
:1052900086028091F0049091F104821793070CF03C
:1052A000C3CEE5CF0E94041020915F0B3091600BBC
:1052B0004091610B5091620B621B730B840B950B39
:1052C000605975428040904008F4C5CD80918105B9
:1052D000882309F440C0813009F4A1C0823009F468
:1052E000A9C0833009F041C084EC9FEF90931A036A
:1052F0008093190310921C0310921B0336C00E9466
:10530000041060935F0B7093600B8093610B90931C
:10531000620B87E080938F0B08958130F1F182302A
:1053200009F467C0833009F0B4CD8091E90825E025
:10533000829FC0011124880F991F880F991F909593
:1053400081959F4F90931A038093190310921C0329
:1053500010921B039ECD10921A03109219038CE336
:1053600090E090931C0380931B038FEF93E0909346
:10537000ED048093EC041092EF041092EE0488E0A8
:1053800080938F0B0E94041060935F0B7093600BEF
:105390008093610B9093620B08958091E90825E05A
:1053A000829FC0011124880F991F880F991F909325
:1053B0001A038093190310921C0310921B0369CDEA
:1053C00091E09093E90880918105882321F482E09F
:1053D000809381053ECD8130C1F18230D1F183309F
:1053E00009F037CD109281050E940A3F10929C056A
:1053F00030CD10921A03109219038091E90825E02C
:10540000829FC0011124880F991F880F991F9095C2
:1054100081959F4F90931C0380931B033ACD8CE39F
:1054200090E090931A038093190310921C0310923A
:105430001B039BCF10921A031092190384EC9FEF69
:1054400090931C0380931B0390CF83E0809381058E
:1054500000CD9093810510929C0586E080938F0B80
:1054600008952F923F924F925F926F927F928F9208
:105470009F92AF92BF92CF92DF92EF92FF920F93E3
:105480001F9340919C05442309F44EC220911903B7
:1054900030911A03413009F40CC337FD81C1C901B1
:1054A00061E00E944A1990932A0380932903809116
:1054B0001B0390911C0397FD81C160E00E944A1973
:1054C00090932C0380932B0380919404882309F0FC
:1054D00081C180912B0390912C03909308038093BA
:1054E00007038091290390912A03909306038093E8
:1054F000050380910302882309F4A2C020910903C7
:1055000030910A03369527953695279530930E03EB
:1055100020930D031092030210920A0310920903C4
:1055200080919C05813009F495C30E94711F809180
:10553000BB049091BC04A091BD04B091BE048093C3
:10554000C3049093C404A093C504B093C6046091AF
:10555000E0047091E104882777FD8095982F0E94E0
:10556000A6557B018C010E9404102091E404309127
:10557000E5044091E6045091E704621B730B840B31
:10558000950B0E94A45520E030E040ED52E40E94CB
:10559000BF569B01AC01C801B7010E94BF5620E075
:1055A00034E244E759E40E940B559B01AC01609141
:1055B000BB047091BC048091BD049091BE040E9414
:1055C0003E546093BB047093BC048093BD049093DD
:1055D000BE040E9404106093E4047093E504809379
:1055E000E6049093E7046091BB047091BC04809141
:1055F000BD049091BE040E9473550E94A65560930D
:10560000F1027093F2028093F3029093F4028BE222
:1056100093E00E948A0C20912B0330912C0330934D
:10562000140320931303121613060CF036C33093A1
:10563000A9002093A8008091CB048F5F8093CB04B6
:1056400080910402882309F0CCC08091CB04823081
:1056500008F495C01092CB042090BF043090C00491
:105660004090C1045090C2046090BB047090BC0490
:105670008090BD049090BE04C201B1012091C70486
:105680003091C8044091C9045091CA040E943D540D
:105690007B018C01C401B3012091C3043091C40487
:1056A0004091C5045091C6040E943D549B01AC0139
:1056B000C801B7010E943E5420E030E040E05FE3C3
:1056C0000E94BF565B016C016093A7047093A8040D
:1056D0008093A9049093AA0480911202813009F466
:1056E000F5C18091CC049091CD04A091CE04B091ED
:1056F000CF048093970490939804A0939904B09357
:105700009A047C018D01C801B7010E9408559B01D4
:10571000AC01C601B5010E94BF569B01AC0160916E
:105720009F047091A0048091A1049091A2040E9412
:105730003E5460939F047093A0048093A1049093BF
:10574000A204C801B7010E9422579B01AC01C60107
:10575000B5010E94BF569B01AC016091A3047091FA
:10576000A4048091A5049091A6040E943E546093E5
:10577000A3047093A4048093A5049093A6041F919E
:105780000F91FF90EF90DF90CF90BF90AF909F90E0
:105790008F907F906F905F904F903F902F900895E3
:1057A000C90163E00E944A1990932A038093290358
:1057B00080911B0390911C0397FF7FCE62E00E94B3
:1057C0004A1990932C0380932B038091940488238F
:1057D00009F47FCE8BE293E069E273E00E94D53357
:1057E00078CE20910B0330910C0336952795369592
:1057F00027953093100320930F0310920402109208
:105800000C0310920B0380919C05813009F4FFC1B9
:105810000E94FA1C8091BF049091C004A091C10421
:10582000B091C2048093C7049093C804A093C904A4
:10583000B093CA046091E2047091E304882777FD75
:105840008095982F0E94A6557B018C010E94041020
:105850002091E8043091E9044091EA045091EB046E
:10586000621B730B840B950B0E94A45520E030E063
:1058700040ED52E40E94BF569B01AC01C801B70144
:105880000E94BF5620E034E244E759E40E940B55E1
:105890009B01AC016091BF047091C0048091C10470
:1058A0009091C2040E943E546093BF047093C00460
:1058B0008093C1049093C2040E9404106093E80492
:1058C0007093E9048093EA049093EB046091BF0421
:1058D0007091C0048091C1049091C2040E947355DC
:1058E0000E94A6556093ED027093EE028093EF0242
:1058F0009093F00289E293E00E945F0B20912903CC
:1059000030912A03309312032093110312161306C9
:105910000CF0D0C130939900209398008091CB0473
:105920008F5F8093CB0493CE0E9404108B019C0167
:1059300040E050E060E070E0809184049091850444
:10594000F0918604B0918704D0908804B0908904C7
:1059500090908A04A0918B04802E881AE1E00815AB
:1059600008F030C1812F891B91E0181708F022C17F
:10597000E82EEE1AE1E08E1508F013C19E2B822F5F
:105980008F1BE1E0281708F004C1A82EA91A91E0A6
:105990008A1508F0F5C0E92B832F8B1B91E038178F
:1059A00008F0E6C0C82ECE1AE1E08C1508F0D7C08A
:1059B0009E2B8D2D8195E1E0481708F0C8C0B82FC7
:1059C000B91B91E08B1708F0B9C0E92B8B2D81959D
:1059D000F1E0581708F0A9C0982F9E1BE92F91E01D
:1059E0008E1708F099C0F92B892D819591E06817E1
:1059F00008F08AC0382F3F1B21E0831708F07DC0D4
:105A0000922BA195A91709F4E5C00E9404109B01EF
:105A1000AC016093840430938504409386045093D2
:105A20008704109288041092890410928A041092BC
:105A30008B0480918C04882309F449C1409115039B
:105A4000509116034115510509F056C110921A03E1
:105A50001092190320E030E0409117035091180391
:105A60004115510509F47FC160911B0370911C031E
:105A7000649FC001659F900D749F900D112497FD48
:105A800072C1641775070CF075C180911302FB0198
:105A9000E80FF11DF0931C03E0931B034E175F0703
:105AA0000CF07BC150931C0340931B0340919C0559
:105AB000F1CC30932A032093290380911B0390910A
:105AC0001C0390932C0380932B03FECCC201B101E5
:105AD000A40193010E943D5420E030E04EE152E4E5
